{
  "contractName": "Voting",
  "abi": [
    {
      "constant": true,
      "inputs": [
        {
          "name": "",
          "type": "bytes32"
        }
      ],
      "name": "votesRecieved",
      "outputs": [
        {
          "name": "",
          "type": "uint8"
        }
      ],
      "payable": false,
      "stateMutability": "view",
      "type": "function"
    },
    {
      "inputs": [
        {
          "name": "candidateNames",
          "type": "bytes32[]"
        }
      ],
      "payable": false,
      "stateMutability": "nonpayable",
      "type": "constructor"
    },
    {
      "constant": false,
      "inputs": [
        {
          "name": "candidate",
          "type": "bytes32"
        }
      ],
      "name": "voteForCandidate",
      "outputs": [],
      "payable": false,
      "stateMutability": "nonpayable",
      "type": "function"
    },
    {
      "constant": true,
      "inputs": [
        {
          "name": "candidate",
          "type": "bytes32"
        }
      ],
      "name": "totalVoteFor",
      "outputs": [
        {
          "name": "",
          "type": "uint8"
        }
      ],
      "payable": false,
      "stateMutability": "view",
      "type": "function"
    },
    {
      "constant": true,
      "inputs": [
        {
          "name": "candidate",
          "type": "bytes32"
        }
      ],
      "name": "validCandidate",
      "outputs": [
        {
          "name": "",
          "type": "bool"
        }
      ],
      "payable": false,
      "stateMutability": "view",
      "type": "function"
    }
  ],
  "bytecode": "0x608060405234801561001057600080fd5b506040516103a13803806103a1833981018060405281019080805182019291905050508060009080519060200190610049929190610050565b50506100c8565b828054828255906000526020600020908101928215610092579160200282015b82811115610091578251829060001916905591602001919060010190610070565b5b50905061009f91906100a3565b5090565b6100c591905b808211156100c15760008160009055506001016100a9565b5090565b90565b6102ca806100d76000396000f300608060405260043610610062576000357c0100000000000000000000000000000000000000000000000000000000900463ffffffff16806314fd4fd114610067578063392e6678146100b2578063cc9ab267146100fb578063f447b9481461012c575b600080fd5b34801561007357600080fd5b506100966004803603810190808035600019169060200190929190505050610177565b604051808260ff1660ff16815260200191505060405180910390f35b3480156100be57600080fd5b506100e160048036038101908080356000191690602001909291905050506101bd565b604051808215151515815260200191505060405180910390f35b34801561010757600080fd5b5061012a600480360381019080803560001916906020019092919050505061021c565b005b34801561013857600080fd5b5061015b600480360381019080803560001916906020019092919050505061027e565b604051808260ff1660ff16815260200191505060405180910390f35b6000610182826101bd565b151561018d57600080fd5b60016000836000191660001916815260200190815260200160002060009054906101000a900460ff169050919050565b600080600090505b6000805490508110156102115782600019166000828154811015156101e657fe5b90600052602060002001546000191614156102045760019150610216565b80806001019150506101c5565b600091505b50919050565b610225816101bd565b151561023057600080fd5b600160008260001916600019168152602001908152602001600020600081819054906101000a900460ff168092919060010191906101000a81548160ff021916908360ff1602179055505050565b60016020528060005260406000206000915054906101000a900460ff16815600a165627a7a723058208e945895aa0a31ba66d0b121ef07208412da1718204e9fe639644ed6d7d30ada0029",
  "source": "pragma solidity ^0.4.23;\n\ncontract Voting\n{\n    //constructor to initialize candidiates\n    //vote for candidiates\n    //get count of votes\n\n    bytes32[] candidateslist;\n    mapping(bytes32 => uint8)public votesRecieved;\n    constructor(bytes32[] candidateNames) public\n    {\n        candidateslist=candidateNames;\n    }\n    function voteForCandidate(bytes32 candidate)public\n    {\n        require(validCandidate(candidate));\n        votesRecieved[candidate]++;\n    }\n    function totalVoteFor(bytes32 candidate) view public returns(uint8)\n    {\n        require(validCandidate(candidate));\n        return votesRecieved[candidate];\n    }\n\n    function validCandidate(bytes32 candidate) view public returns(bool)\n    {\n        for(uint i=0;i<candidateslist.length;i++)\n        {\n            if(candidateslist[i]==candidate)\n            {\n                return true;\n            }\n        }\n        return false;\n    }\n}\n",
  "sourcePath": "/home/mukul/ethereum_voting_dapp/chapter2/contracts/voting.sol",
  "compiler": {
    "name": "solc",
    "version": "0.4.24+commit.e67f0147.Emscripten.clang"
  },
  "schemaVersion": "2.0.1",
  "updatedAt": "2018-09-27T03:10:59.215Z"
}